{
  "contractName": "MoneyManagement",
  "abi": [
    {
      "anonymous": false,
      "inputs": [
        {
          "indexed": false,
          "internalType": "address",
          "name": "from",
          "type": "address"
        },
        {
          "indexed": false,
          "internalType": "uint256",
          "name": "amount",
          "type": "uint256"
        }
      ],
      "name": "PaymentReceived",
      "type": "event"
    },
    {
      "payable": true,
      "stateMutability": "payable",
      "type": "fallback"
    },
    {
      "constant": true,
      "inputs": [
        {
          "internalType": "address",
          "name": "",
          "type": "address"
        }
      ],
      "name": "userRoles",
      "outputs": [
        {
          "internalType": "string",
          "name": "",
          "type": "string"
        }
      ],
      "payable": false,
      "stateMutability": "view",
      "type": "function"
    },
    {
      "constant": false,
      "inputs": [
        {
          "internalType": "address",
          "name": "_user",
          "type": "address"
        },
        {
          "internalType": "string",
          "name": "_role",
          "type": "string"
        }
      ],
      "name": "assignRole",
      "outputs": [],
      "payable": false,
      "stateMutability": "nonpayable",
      "type": "function"
    },
    {
      "constant": false,
      "inputs": [
        {
          "internalType": "address",
          "name": "acc",
          "type": "address"
        },
        {
          "internalType": "string",
          "name": "name",
          "type": "string"
        },
        {
          "internalType": "uint256",
          "name": "per",
          "type": "uint256"
        }
      ],
      "name": "addAccount",
      "outputs": [
        {
          "internalType": "string",
          "name": "",
          "type": "string"
        },
        {
          "internalType": "uint256",
          "name": "",
          "type": "uint256"
        }
      ],
      "payable": false,
      "stateMutability": "nonpayable",
      "type": "function"
    },
    {
      "constant": true,
      "inputs": [
        {
          "internalType": "address",
          "name": "acc",
          "type": "address"
        }
      ],
      "name": "getAccountDetails",
      "outputs": [
        {
          "internalType": "string",
          "name": "",
          "type": "string"
        },
        {
          "internalType": "uint256",
          "name": "",
          "type": "uint256"
        }
      ],
      "payable": false,
      "stateMutability": "view",
      "type": "function"
    },
    {
      "constant": false,
      "inputs": [],
      "name": "payRent",
      "outputs": [],
      "payable": true,
      "stateMutability": "payable",
      "type": "function"
    },
    {
      "constant": false,
      "inputs": [],
      "name": "withdrawDeposit",
      "outputs": [],
      "payable": false,
      "stateMutability": "nonpayable",
      "type": "function"
    },
    {
      "constant": true,
      "inputs": [],
      "name": "getNamesLength",
      "outputs": [
        {
          "internalType": "uint256",
          "name": "",
          "type": "uint256"
        }
      ],
      "payable": false,
      "stateMutability": "view",
      "type": "function"
    },
    {
      "constant": true,
      "inputs": [
        {
          "internalType": "uint256",
          "name": "i",
          "type": "uint256"
        }
      ],
      "name": "getNames",
      "outputs": [
        {
          "internalType": "string",
          "name": "",
          "type": "string"
        }
      ],
      "payable": false,
      "stateMutability": "view",
      "type": "function"
    },
    {
      "constant": true,
      "inputs": [
        {
          "internalType": "uint256",
          "name": "i",
          "type": "uint256"
        }
      ],
      "name": "getAddress",
      "outputs": [
        {
          "internalType": "address",
          "name": "",
          "type": "address"
        }
      ],
      "payable": false,
      "stateMutability": "view",
      "type": "function"
    },
    {
      "constant": true,
      "inputs": [
        {
          "internalType": "uint256",
          "name": "i",
          "type": "uint256"
        }
      ],
      "name": "getPercentage",
      "outputs": [
        {
          "internalType": "uint256",
          "name": "",
          "type": "uint256"
        }
      ],
      "payable": false,
      "stateMutability": "view",
      "type": "function"
    },
    {
      "constant": true,
      "inputs": [
        {
          "internalType": "uint256",
          "name": "i",
          "type": "uint256"
        }
      ],
      "name": "getDetails",
      "outputs": [
        {
          "internalType": "string",
          "name": "",
          "type": "string"
        },
        {
          "internalType": "address",
          "name": "",
          "type": "address"
        },
        {
          "internalType": "uint256",
          "name": "",
          "type": "uint256"
        }
      ],
      "payable": false,
      "stateMutability": "view",
      "type": "function"
    }
  ],
  "bytecode": "0x6080604052606460045534801561001557600080fd5b506110ce806100256000396000f3fe60806040526004361061009c5760003560e01c8063a709c4fe11610064578063a709c4fe146103af578063b7dfcbee146103b7578063b93a89f71461047a578063b93f9b0a1461053c578063e161c3bf14610582578063f235bfa4146105ac5761009c565b8063117df088146101ed5780632aceb5341461020457806335f66908146102b65780635718e17b146102dd57806374d5e1001461037c575b60408051338152346020820152815160008051602061107a833981519152929181900390910190a160035460005b818110156101e95760006001600383815481106100e357fe5b9060005260206000200160405180828054600181600116156101000203166002900480156101485780601f10610126576101008083540402835291820191610148565b820191906000526020600020905b815481529060010190602001808311610134575b50509283525050604080519182900360209081018320546001600160a01b031660008181526002909252918120549193506064349092029190910491839183156108fc02918491818181858888f193505050501580156101ac573d6000803e3d6000fd5b50604080516001600160a01b038416815260208101839052815160008051602061107a833981519152929181900390910190a150506001016100ca565b5050005b3480156101f957600080fd5b50610202610671565b005b34801561021057600080fd5b506102376004803603602081101561022757600080fd5b50356001600160a01b0316610790565b6040518080602001838152602001828103825284818151815260200191508051906020019080838360005b8381101561027a578181015183820152602001610262565b50505050905090810190601f1680156102a75780820380516001836020036101000a031916815260200191505b50935050505060405180910390f35b3480156102c257600080fd5b506102cb61084c565b60408051918252519081900360200190f35b3480156102e957600080fd5b506103076004803603602081101561030057600080fd5b5035610853565b6040805160208082528351818301528351919283929083019185019080838360005b83811015610341578181015183820152602001610329565b50505050905090810190601f16801561036e5780820380516001836020036101000a031916815260200191505b509250505060405180910390f35b34801561038857600080fd5b506103076004803603602081101561039f57600080fd5b50356001600160a01b031661091a565b6102026109b4565b3480156103c357600080fd5b50610202600480360360408110156103da57600080fd5b6001600160a01b03823516919081019060408101602082013564010000000081111561040557600080fd5b82018360208201111561041757600080fd5b8035906020019184600183028401116401000000008311171561043957600080fd5b91908080601f016020809104026020016040519081016040528093929190818152602001838380828437600092019190915250929550610ae3945050505050565b34801561048657600080fd5b506104a46004803603602081101561049d57600080fd5b5035610b0f565b6040518080602001846001600160a01b03166001600160a01b03168152602001838152602001828103825285818151815260200191508051906020019080838360005b838110156104ff5781810151838201526020016104e7565b50505050905090810190601f16801561052c5780820380516001836020036101000a031916815260200191505b5094505050505060405180910390f35b34801561054857600080fd5b506105666004803603602081101561055f57600080fd5b5035610d2a565b604080516001600160a01b039092168252519081900360200190f35b34801561058e57600080fd5b506102cb600480360360208110156105a557600080fd5b5035610de1565b3480156105b857600080fd5b50610237600480360360608110156105cf57600080fd5b6001600160a01b0382351691908101906040810160208201356401000000008111156105fa57600080fd5b82018360208201111561060c57600080fd5b8035906020019184600183028401116401000000008311171561062e57600080fd5b91908080601f0160208091040260200160405190810160405280939291908181526020018383808284376000920191909152509295505091359250610eab915050565b604080516713185b991b1bdc9960c21b602080830191909152825180830360080181526028830184528051908201203360009081529182905292902080549091604801908190839060026000196101006001841615020190911604801561070f5780601f106106ed57610100808354040283529182019161070f565b820191906000526020600020905b8154815290600101906020018083116106fb575b5050915050604051602081830303815290604052805190602001201461073457600080fd5b6040514790339082156108fc029083906000818181858888f19350505050158015610763573d6000803e3d6000fd5b506040805133815260208101839052815160008051602061107a833981519152929181900390910190a150565b6001600160a01b03811660009081526020818152604080832080548251601f600260001961010060018616150201909316929092049182018590048502810185019093528083526060949385939291908301828280156108315780601f1061080657610100808354040283529160200191610831565b820191906000526020600020905b81548152906001019060200180831161081457829003601f168201915b5093965050506001600160a01b038616319350505050915091565b6003545b90565b606060008211801561086757506003548211155b61087057600080fd5b6003600183038154811061088057fe5b600091825260209182902001805460408051601f600260001961010060018716150201909416939093049283018590048502810185019091528181529283018282801561090e5780601f106108e35761010080835404028352916020019161090e565b820191906000526020600020905b8154815290600101906020018083116108f157829003601f168201915b50505050509050919050565b600060208181529181526040908190208054825160026001831615610100026000190190921691909104601f8101859004850282018501909352828152929091908301828280156109ac5780601f10610981576101008083540402835291602001916109ac565b820191906000526020600020905b81548152906001019060200180831161098f57829003601f168201915b505050505081565b604080516515195b985b9d60d21b6020808301919091528251808303600601815260268301845280519082012033600090815291829052929020805490916046019081908390600260001961010060018416150201909116048015610a505780601f10610a2e576101008083540402835291820191610a50565b820191906000526020600020905b815481529060010190602001808311610a3c575b50509150506040516020818303038152906040528051906020012014610a7557600080fd5b6000610a7f610fb0565b6040519091506001600160a01b038216903480156108fc02916000818181858888f19350505050158015610ab7573d6000803e3d6000fd5b5060408051338152346020820152815160008051602061107a833981519152929181900390910190a150565b6001600160a01b0382166000908152602081815260409091208251610b0a92840190610fe1565b505050565b6060600080600084118015610b2657506003548411155b610b2f57600080fd5b60036001850381548110610b3f57fe5b90600052602060002001600160036001870381548110610b5b57fe5b906000526020600020016040518082805460018160011615610100020316600290048015610bc05780601f10610b9e576101008083540402835291820191610bc0565b820191906000526020600020905b815481529060010190602001808311610bac575b5050915050908152602001604051809103902060009054906101000a90046001600160a01b0316600260006001600360018a0381548110610bfd57fe5b906000526020600020016040518082805460018160011615610100020316600290048015610c625780601f10610c40576101008083540402835291820191610c62565b820191906000526020600020905b815481529060010190602001808311610c4e575b505092835250506040805160209281900383019020546001600160a01b0316835282820193909352908201600020548454835160026101006001841615026000190190921691909104601f810184900484028201840190945283815290929091859190830182828015610d165780601f10610ceb57610100808354040283529160200191610d16565b820191906000526020600020905b815481529060010190602001808311610cf957829003601f168201915b50939b959a50939850939650505050505050565b60008082118015610d3d57506003548211155b610d4657600080fd5b600160036001840381548110610d5857fe5b906000526020600020016040518082805460018160011615610100020316600290048015610dbd5780601f10610d9b576101008083540402835291820191610dbd565b820191906000526020600020905b815481529060010190602001808311610da9575b50509283525050604051908190036020019020546001600160a01b03169050919050565b60008082118015610df457506003548211155b610dfd57600080fd5b60026000600160036001860381548110610e1357fe5b906000526020600020016040518082805460018160011615610100020316600290048015610e785780601f10610e56576101008083540402835291820191610e78565b820191906000526020600020905b815481529060010190602001808311610e64575b505092835250506040805160209281900383019020546001600160a01b0316835290820192909252016000205492915050565b606060008083118015610ec057506004548311155b610ec957600080fd5b846001856040518082805190602001908083835b60208310610efc5780518252601f199092019160209182019101610edd565b51815160209384036101000a60001901801990921691161790529201948552506040805194859003820190942080546001600160a01b0319166001600160a01b03968716179055938916600090815260028552928320879055505060048054869003905560038054600181018083559190925286519092610fa3927fc2575a0e9e593c00f959f8c92f12db2869c3395a3b0502d05e2516446f71f85b019190880190610fe1565b5093959294509192505050565b604080516713185b991b1bdc9960c21b8152600160088201529051908190036028019020546001600160a01b031690565b828054600181600116156101000203166002900490600052602060002090601f016020900481019282601f1061102257805160ff191683800117855561104f565b8280016001018555821561104f579182015b8281111561104f578251825591602001919060010190611034565b5061105b92915061105f565b5090565b61085091905b8082111561105b576000815560010161106556fe6ef95f06320e7a25a04a175ca677b7052bdd97131872c2192525a629f51be770a265627a7a723158204c261f8d0c18eaf997f47dc45d4dcfa4c7b0c5d7970d1f05a86bfedc07d0964f64736f6c63430005100032",
  "source": "// SPDX-License-Identifier: MIT\npragma solidity ^0.5.0;\n\ncontract MoneyManagement {\n    mapping(address => string) public userRoles;\n    mapping(string => address payable) accounts;\n    mapping(address => uint256) percentage;\n    string[] names;\n    uint remaning = 100;\n\n    event PaymentReceived(address from, uint amount);\n\n    function assignRole(address _user, string memory _role) public {\n        userRoles[_user] = _role;\n    }\n\n    // Fallback function for payments (in Solidity 0.5.0 you must use fallback like this)\n    function() external payable {\n        emit PaymentReceived(msg.sender, msg.value);\n        uint namesLength = names.length;\n        for (uint i = 0; i < namesLength; i++) {\n            address payable acc = accounts[names[i]];\n            uint amount = (msg.value * percentage[acc]) / 100;\n            acc.transfer(amount);\n            emit PaymentReceived(acc, amount);\n        }\n    }\n\n    function addAccount(address acc, string memory name, uint per) public returns (string memory, uint) {\n        require(per > 0 && per <= remaning);\n        accounts[name] = address(uint160(acc));\n        percentage[acc] = per;\n        remaning -= per;\n        names.push(name);\n        return (name, per);\n    }\n\n    function getAccountDetails(address acc) public view returns (string memory, uint) {\n        string memory role = userRoles[acc];\n        uint balance = acc.balance;\n        return (role, balance);\n    }\n\n    function payRent() public payable {\n        require(keccak256(abi.encodePacked(userRoles[msg.sender])) == keccak256(abi.encodePacked(\"Tenant\")));\n        address payable landlord = getLandlordAddress();\n        landlord.transfer(msg.value);\n        emit PaymentReceived(msg.sender, msg.value);\n    }\n\n    function withdrawDeposit() public {\n        require(keccak256(abi.encodePacked(userRoles[msg.sender])) == keccak256(abi.encodePacked(\"Landlord\")));\n        uint256 amount = address(this).balance;\n        msg.sender.transfer(amount);\n        emit PaymentReceived(msg.sender, amount);\n    }\n\n    function getLandlordAddress() internal view returns (address payable) {\n        return accounts[\"Landlord\"];\n    }\n\n    function getNamesLength() public view returns (uint) {\n        return names.length;\n    }\n\n    function getNames(uint i) public view returns (string memory) {\n        require(i > 0 && i <= names.length);\n        return names[i - 1];\n    }\n\n    function getAddress(uint i) public view returns (address) {\n        require(i > 0 && i <= names.length);\n        return accounts[names[i - 1]];\n    }\n\n    function getPercentage(uint i) public view returns (uint) {\n        require(i > 0 && i <= names.length);\n        return percentage[accounts[names[i - 1]]];\n    }\n\n    function getDetails(uint i) public view returns (string memory, address, uint) {\n        require(i > 0 && i <= names.length);\n        return (names[i - 1], accounts[names[i - 1]], percentage[accounts[names[i - 1]]]);\n    }\n\n    function stringsEqual(string storage _a, string memory _b) internal view returns (bool) {\n        bytes storage a = bytes(_a);\n        bytes memory b = bytes(_b);\n        if (a.length != b.length) {\n            return false;\n        }\n        for (uint i = 0; i < a.length; i++) {\n            if (a[i] != b[i]) {\n                return false;\n            }\n        }\n        return true;\n    }\n}\n\n\n",
  "sourcePath": "C:\\Users\\Anthony Onyeke\\Desktop\\Dapp\\Rental-Agreement-master\\contracts\\MoneyManagement.sol",
  "compiler": {
    "name": "solc",
    "version": "0.5.16+commit.9c3226ce.Emscripten.clang"
  },
  "schemaVersion": "3.4.13",
  "updatedAt": "2025-04-06T05:13:15.284Z",
  "devdoc": {
    "methods": {}
  },
  "userdoc": {
    "methods": {}
  }
}